:020000040800F2
:10000000000002209106000885060008118B0008F8
:100010008506000885060008850600080000000027
:10002000000000000000000000000000850600083D
:10003000850600080000000085060008958A000873
:100040008506000885060008850600088506000864
:100050008506000885060008850600088506000854
:100060008506000885060008850600084D850008FD
:10007000598500080563000865850008718500083A
:10008000A9660108856F0008850600088506000836
:100090008506000885060008850600088506000814
:1000A0008506000885060008850600088506000804
:1000B00035580108415801084D580108B96F00082A
:1000C00085060008C56F0008850600087D500108F8
:1000D00089500108DD640108096501083D650108D2
:1000E0008506000885060008000000008506000857
:1000F00085060008850600088506000885060008B4
:100100008506000885060008595801089550010821
:1001100071650108A56501082566000885060008C7
:100120000D66000819660008B9500108ED50010875
:10013000DD660108850600088506000885060008BA
:1001400000000000000000000000000000000000AF
:10015000850600088506000885060008D96501089F
:10016000D16F000885060008A58A0008C98A000822
:1001700085060008ED8A0008850600088506000847
:1001800085060008850600080D660108416601081D
:10019000A1500108AD500108850600088506000839
:1001A0008506000885060008850600088506000803
:1001B000B581000885060008850600088506000848
:1001C0008506000885060008195D0008255D000801
:1001D00085060008315D00088506000885060008D0
:1001E00085060008850600088506000885060008C3
:1001F00085060008850600088506000885060008B3
:1002000085060008850600088506000885060008A2
:100210008506000885060008850600088506000892
:100220008506000885060008850600080000000015
:100230008506000885060008000000008506000805
:100240008506000885060008850600088506000862
:100250008506000885060008850600088506000852
:100260008506000885060008850600088506000842
:100270008506000885060008756601080000000074
:1002800085060008850600088506000800000000B5
:080290000000000085060008D3
:1002A00010B5054C237833B9044B13B10448AFF3B0
:1002B00000800123237010BD100600240000000000
:1002C00038DD010808B5034B1BB103490348AFF300
:1002D000008008BD000000001406002438DD01087D
:1002E00001F0FF01102A2BDB10F0070F08D010F8E7
:1002F000013B013A8B422DD010F0070F42B3F6D1EB
:10030000F0B441EA012141EA014122F007047FF003
:1003100000070023F0E80256083C85EA010586EA5A
:10032000010685FA47F5A3FA87F586FA47F6A5FA96
:1003300087F68EB9EED1F0BC01F0FF0102F00702A2
:1003400032B110F8013B013A83EA010313B1F8D14D
:100350000020704701387047002D06BF354603382E
:10036000073815F0010F07D1013015F4807F02BF67
:10037000013015F4C03F0130F0BC0138704700BFB8
:1003800053B94AB9002908BF00281CBF4FF0FF31FC
:100390004FF0FF3000F074B9ADF1080C6DE904CEF8
:1003A00000F006F8DDF804E0DDE9022304B0704750
:1003B0002DE9F047089D04468E46002B4DD18A4218
:1003C000944669D9B2FA82F252B101FA02F3C2F14B
:1003D000200120FA01F10CFA02FC41EA030E9440DC
:1003E0004FEA1C48210CBEFBF8F61FFA8CF708FBFD
:1003F00016E341EA034306FB07F199420AD91CEBD5
:10040000030306F1FF3080F01F81994240F21C8106
:10041000023E63445B1AA4B2B3FBF8F008FB10334E
:1004200044EA034400FB07F7A7420AD91CEB040483
:1004300000F1FF3380F00A81A74240F20781644453
:10044000023840EA0640E41B00261DB1D4400023D8
:10045000C5E900433146BDE8F0878B4209D9002D3C
:1004600000F0EF800026C5E9000130463146BDE8C6
:10047000F087B3FA83F6002E4AD18B4202D3824230
:1004800000F2F980841A61EB030301209E46002DDF
:10049000E0D0C5E9004EDDE702B9FFDEB2FA82F234
:1004A000002A40F09280A1EB0C014FEA1C471FFA92
:1004B0008CFE0126200CB1FBF7F307FB131140EA79
:1004C00001410EFB03F0884208D91CEB010103F146
:1004D000FF3802D2884200F2CB804346091AA4B208
:1004E000B1FBF7F007FB101144EA01440EFB00FEDC
:1004F000A64508D91CEB040400F1FF3102D2A64541
:1005000000F2BB800846A4EB0E0440EA03409CE7DF
:10051000C6F12007B34022FA07FC4CEA030C20FA8C
:1005200007F401FA06F31C43F9404FEA1C4900FAAC
:1005300006F3B1FBF9F8200C1FFA8CFE09FB181129
:1005400040EA014108FB0EF0884202FA06F20BD99C
:100550001CEB010108F1FF3A80F08880884240F2EC
:100560008580A8F102086144091AA4B2B1FBF9F030
:1005700009FB101144EA014100FB0EFE8E4508D92B
:100580001CEB010100F1FF346CD28E456AD90238B0
:10059000614440EA0840A0FB0294A1EB0E01A14295
:1005A000C846A64656D353D05DB1B3EB080261EB03
:1005B0000E0101FA07F722FA06F3F1401F43C5E9DD
:1005C000007100263146BDE8F087C2F12003D84013
:1005D0000CFA02FC21FA03F3914001434FEA1C4755
:1005E0001FFA8CFEB3FBF7F007FB10360B0C43EA47
:1005F000064300FB0EF69E4204FA02F408D91CEBF7
:10060000030300F1FF382FD29E422DD902386344F4
:100610009B1B89B2B3FBF7F607FB163341EA034194
:1006200006FB0EF38B4208D91CEB010106F1FF38E3
:1006300016D28B4214D9023E6144C91A46EA0046DA
:1006400038E72E46284605E70646E3E61846F8E66C
:100650004B45A9D2B9EB020864EB0C0E0138A3E7B5
:100660004646EAE7204694E74046D1E7D0467BE796
:10067000023B614432E7304609E76444023842E70E
:10068000704700BF684620F007018D46FEE700BFB7
:100690000B480C4A904208B503D0121A0A4919F0C7
:1006A000FDFF0A480A4A904203D0121A00211AF0AC
:1006B00003F808F089FC19F0C5FF03F085FCFEE79C
:1006C000000000240C06002480DD01081006002430
:1006D000C08A002481B1D0E9003203EB4101023A23
:1006E000023BA1F1020C0549888923F8020F6345FA
:1006F000C88922F8020FF7D1704700BF2C060024EA
:100700002DE9F04740F20113C84A012605462DEDB8
:10071000028BADF5DB6DC0F81C22ADF82030002354
:1007200007968DF8223008F005FC002840F06D8116
:10073000284607A908F078FB05F1080004F0B0F896
:1007400027AF0523012106223B700820BB703973B7
:1007500000213B71BB713B72092379730A21FB7045
:100760000723787005F10C0079723946FA71BA7274
:10077000FA727B7107F0A8FA0126032300241DA951
:1007800005A81D940594CDE92136A94B1E9303F1CC
:10079000007303F540731F934FF44173CDE9234673
:1007A000CDE92564ADF8803007F05EFFA14B0DA9BF
:1007B00006A806940E931023109405F110048DF8EA
:1007C00044300D960F9606F009FC069905F12000BD
:1007D00003F064FF984B0DF1240C3E460FCB8CE8E0
:1007E0000F006146059A204604F04AFF204604F0B7
:1007F00091FF2046B0EE408A04F07AFFD0ED007AF7
:100800003BA90DF5E56CF8EE677A88EE277A85ED61
:10081000867A00220B24FF20A1F13C0301F8504C02
:1008200041F84C2C01F84F0C41E9122214330022FC
:100830000B20FF248B4243F8102C03F8140C03F810
:10084000134C43E90322F1D103F154016145E0D196
:100850000DF15C08DFF8FCE11446C446BEE80F0069
:10086000ACE80F009EE803008CE8030016E00B786C
:10087000543691F801A0B9F80090BEF800E043EAC0
:100880000A2338F814100134CDF808C0ADF80490EC
:10089000ADF800E005F062FA0C2C17D06749A4F11E
:1008A0000903DFF8B4914FF0020CDFF8B0E1082241
:1008B0003046002CDBD06345D9D938F81410013408
:1008C0000222543605F03AFA0C2CE7D105F114084F
:1008D00005F14009394604232246404600264F468A
:1008E00005F07AFA0BE0F1B2404605F093FC95ED85
:1008F000860A01463846013604F0CAFF2037082E22
:1009000071D055D8731E062BEDD90024E2B2002118
:100910004046013405F088FC95ED860A01464846BC
:1009200004F0B6FF082CF1D101360C2EE6D10024DC
:10093000434A05F12C00234611680094012206F079
:10094000D7F8404B05F5E0700122196805F026F84C
:100950003D4B05F5EC700122196805F01FF80123E5
:10096000D5F81C024BF6803212A916941030129260
:10097000CDE914330223139305F0ECFE404605F055
:1009800033FCD5F81C42237D04F11005002B48D11F
:1009900028462E4D2368D4E90112009505F058FF32
:1009A000012323750DF5DB6DBDEC028BBDE8F087EF
:1009B0000C2EAAD05FFA86FA0024E2B251464046D5
:1009C000013405F031FC00230146DFED210A95EDED
:1009D000860A1A46384604F029FF082CEDD1013664
:1009E0000C2E8BD1A3E73146404605F013FC0023C3
:1009F0000146DFED170A1A4695ED860A05F5A07047
:100A00002037092604F012FFD4E7044607A9284638
:100A10008DF8226008F008FA072C7FF491AE27AF1A
:100A2000AAE6284605F04AFFB2E700BF2C060024DC
:100A300004020404010A010B7CBB010888BD010803
:100A400040BC01083CBC010838BC0108D5060008C0
:100A50006F12033B8CBB010890BD01088CBD0108DF
:100A6000103004F0AFBE00BFF8B500F11007054626
:100A700000F1400400F5E07638462DED028B04F0DD
:100A80003BFE384604F046FE3846B0EE408A04F09D
:100A90002FFED0ED007AF8EE677A88EE270A85ED12
:100AA000860A01E095ED860A2046203404F04AFFCC
:100AB000B442F7D1BDEC028BF8BD00BFF8B500F130
:100AC0001007054600F1400400F5E07638462DEDAC
:100AD000028B04F023FE384604F01CFE3846B0EECC
:100AE000408A04F005FED0ED007AF8EE677A88EED1
:100AF000270A85ED860A01E095ED860A2046203416
:100B000004F020FFB442F7D1BDEC028BF8BD00BF6A
:100B100008B5103004F0ECFD006808BD103004F09A
:100B2000F9BD00BF38B500F1400400F5E07520467E
:100B3000203404F0E3FEAC42F9D138BD704700BF69
:100B400000EB411191ED130A704700BF30B5154C11
:100B500089B005468E46EC460FCCACE80F0094E811
:100B60000F008CE80F00BEF1000F0BD103220B2108
:100B700005F1140005F064FBF7EE007A37EEC00AC9
:100B800009B030BD08AB0A2105F1140003EB8E0E4D
:100B90001EF8242C05F054FBF7EE007A37EEC00A5D
:100BA00009B030BDA4BB010830B5164C89B005466C
:100BB0008E46EC460FCCACE80F0094E80F008CE8B2
:100BC0000F00BEF1000F03D195ED1B0A09B030BD37
:100BD00008AB002105F1140003EB8E0E1EF8242C47
:100BE00005F02EFBB7EE007BB7EEC06AB0EE005BFF
:100BF000BFEE000B37EE467BA7EE050BB7EEC00B42
:100C000009B030BDC4BB010830B5154C89B00546EC
:100C10008E46EC460FCCACE80F0094E80F008CE851
:100C20000F00BEF1000F0BD106220B2105F11400BD
:100C300005F006FBF7EE007A37EEC00A09B030BDCA
:100C400008AB092105F1140003EB8E0E1EF8242CCD
:100C500005F0F6FAF7EE007A37EEC00A09B030BDBB
:100C6000E4BB010802220B21143005F0E9BA00BFF1
:100C700004220B21143005F0E3BA00BF01220B213E
:100C8000143005F0DDBA00BF00220B21143005F04E
:100C9000D7BA00BF05220B21143005F0D1BA00BF2E
:100CA00007490022074B01F1600010B430241A7587
:100CB0009860C3E90041C3E903225DF8044B704723
:100CC000000000302C060024704700BF704700BFB2
:100CD000704700BF704700BF90ED087AB3EE041B69
:100CE000B2EE040BB0EEC77A10B5B7EEC77A044681
:100CF0002DED0A8B87EE011B17F082FE94ED067A2C
:100D0000B7EEC77AB7EEC08B9FEDCD6B27EE060B23
:100D100018F082F92368B7EEC0CB0B2B22D8DFE89E
:100D200013F0F6010C000C00F700240024003C0036
:100D300020014B0197016500C000F7EE006A002317
:100D4000636186EE8C7AE36037EE266A36EEC77A08
:100D5000C6EE867A27EE277AC4ED027AC4ED017AD0
:100D600084ED047ABDEC0A8B10BDF7EE006A002317
:100D700063613CEE266AE3607CEE667A86EE867AF4
:100D8000BDEC0A8BF1EE476A84ED017A67EE877A53
:100D9000C4ED026AC4ED047A10BD94ED076AB7EEA3
:100DA000005ABFEE007A0023CCEE066AA360ACEED8
:100DB0000C7A37EE077A76EE855A35EE666AECEEF7
:100DC0000C5AACEE0C6AC5EE257A66EEA76A27EEE1
:100DD000277A66EE277AB1EE666AC4ED016A84ED81
:100DE000047AC4ED057A84ED036ABBE794ED087AD2
:100DF000B5EEC07AF1EE10FAC0F2D981B7EECCBAF6
:100E0000B7EE005B6CEE0C8A78EE089A9FED8E6B65
:100E1000B7EEE8AAF5EE409A2BEE06BBF1EE10FA1B
:100E20003BEE056B36EE0A6B85EE064BB7EEC49BC8
:100E300000F19782B1EEE97A78EEC86A76EEA66A9A
:100E400066EE896AC4ED026AF0EE486AECEE076A63
:100E500078EEA66A66EE896AC4ED016AB7EE006BA9
:100E6000B0EE480AF7EE005AB7EEC94AACEE470AB0
:100E700036EE4B7B78EEE56A37EE0A7B76EEA66AB5
:100E800078EE808A27EE047B68EE898A66EE896AAE
:100E9000B7EEC77BC4ED038AC4ED046A84ED057A1E
:100EA00060E794ED075AB7EE004BB7EECC1AB7EEF9
:100EB000C55AB0EE443B6CEE0C7A84EE052BB0EED6
:100EC000445BB7EEE76AB7EE007A77EEC77A84ED57
:100ED000037A77EEA77AA1EE023BA1EE425B33EEF6
:100EE000063B36EE056B84EE035BB7EEC55BB7EEF3
:100EF000C54A67EE857A26EE046BC4ED027AC4ED2E
:100F0000047AB7EEC66B84ED016A84ED056A29E7C1
:100F1000D4ED075AB7EE005AFFEE006A8CEE257A40
:100F2000ECEE0C6AB8EE006A76EEA66A77EE055A29
:100F300035EE477AECEE0C5AACEE0C7AC5EE257A1B
:100F400027EE866AC4ED017A66EEA76AC4ED037ADD
:100F500027EE277A84ED026AC4ED046A84ED057AEF
:100F600000E794ED076AF7EE005ABFEE007ACCEE88
:100F7000066AACEE0C7AB0EE656AACEE0C6A37EE3F
:100F8000077A76EEA54A75EEE66AECEE0C4AECEED0
:100F90000C6A85EEA45A26EE056A67EE057A66EEBF
:100FA000856A84ED016AC4ED027A84ED036AC4EDBA
:100FB000047AC4ED056AD5E694ED087AB5EEC07AF8
:100FC000F1EE10FAC0F2CC80D4ED075AF7EE006AC9
:100FD000BFEE007A88EE256AC6EEA54AB0EE665AE4
:100FE000F0EE665AB0EE664AACEE0C7AA6EE0C5AFB
:100FF000E6EE4C5AB0EE666A37EE077AA4EE8C4AFB
:10100000A4EECC6AACEE0C5AECEE0C5AACEE0C4AE8
:10101000ACEE0C6AC6EE844A67EE247A25EE245ABA
:1010200065EEA46A26EE247AC4ED027A84ED015AB4
:10103000C4ED036AC4ED047A84ED057A92E600BF3C
:10104000182D4454FB210940CD3B7F669EA0F63FFE
:1010500094ED087AB5EEC07AF1EE10FAC0F2008194
:10106000B7EECCBAB7EE005B6CEE0C8A78EE089A5D
:101070001FED0B6BB7EEE8AAF5EE409A2BEE06BB20
:10108000F1EE10FA3BEE056B36EE0A6B85EE064B81
:10109000B7EEC49B00F14081B1EEE97A28EE0C8AEC
:1010A000F7EE006A28EE0C8A78EE665A75EEA55ABD
:1010B000ECEE076A65EE895AC4ED025A78EE266AAC
:1010C00066EE896AC4ED016AB7EE005AB7EE006BAE
:1010D000B7EEC94AF0EE455A36EE4B6B78EEC58A4C
:1010E000ECEE475A36EE0A7B78EEA88A27EE047BB0
:1010F00035EE888A68EE898AB7EEC77B28EE099AB2
:10110000C4ED048A84ED057A84ED039A2AE694ED11
:10111000076A2CEE0C7AF7EE005ACCEE066A77EEF0
:10112000657A37EEA76A76EEA57A75EEE66A77EE0F
:10113000877A76EE876A85EEA75A67EE057A66EEBD
:10114000856A26EE057A37EEA76AC4ED017AC4ED0A
:10115000037A84ED047AC4ED056A84ED026A01E63F
:1011600094ED076AF7EE006ABFEE007AC8EE065A01
:10117000C6EE864AB0EE664AB0EE666AB0EE665AD1
:10118000ACEE0C7AA5EE8C4AA5EECC6AF0EE665A6F
:1011900037EE077AA4EE8C5AE4EECC5AACEE0C4A49
:1011A000ACEE0C6AACEE0C5AECEE0C5A32E738EEB0
:1011B000089AB5EE409AF1EE10FA00F1F880B1EE1F
:1011C000C90AF0EE486A6CEE0C8AB7EE007AECEED3
:1011D000006AB7EE002BB7EECC1AB7EEE84AB0EED5
:1011E000425BB5EE409A36EEA86A78EEC86AF1EE38
:1011F00010FA87EE06AA38EEC77A1FED6D3B37EE80
:10120000077AA1EE035BA1EE432B76EEA63A27EE1A
:101210000A7A35EE045B84ED027A23EE8A7A34EEA4
:10122000026BB7EECA4A84ED047A25EE045B26EE23
:10123000046BB7EEC55BB7EEC66B84ED015A84ED67
:10124000036A00F1AD80B1EEC97AB0EE480AACEEA7
:10125000470A38EE800A20EE0A0A84ED050A81E585
:1012600078EE088AF5EE408AF1EE10FA00F1A980D6
:10127000F1EEE85AB7EE004A28EE0C8AB7EE003BD2
:10128000F0EE442A28EE0C8AB7EECC9AECEE252A32
:10129000B0EE435B78EE444A2CEE0C7AF5EE408AD1
:1012A00074EEA44A72EE882AB7EEC76A37EE447A23
:1012B000F1EE10FA1FED9C1B37EE077AA9EE015BE9
:1012C000A9EE413B84EE229A35EE065B36EE036BC7
:1012D00064EE894A27EE097AC4ED044AB7EEC94A9A
:1012E00084ED027A25EE045B26EE046BB7EEC55B57
:1012F000B7EEC66B84ED015A84ED036A5CD4B1EE9F
:10130000E80AB7EE007AACEE407A38EE078A28EEAB
:10131000098A84ED058A25E5B0EE690A18F014F90A
:10132000B7EE007AB0EE406A28EE0C8AF0EE476A1B
:10133000B0EE690A28EE0C8AECEE066A38EE477ABF
:1013400037EE077A76EE886A27EE097A66EE896AC2
:1013500084ED027AC4ED016A18F0F6F8B0EE407A36
:10136000B2E6B0EE690A18F0EFF8F0EE486AB0EEB7
:10137000406A38EEC87AB0EE690AECEE066A37EEDB
:10138000077A27EE097A78EEA66A84ED027A26EECD
:10139000897A84ED017A18F0D7F8B0EE407A5DE5ED
:1013A000B0EE490A18F0D0F8B0EE407A4DE7B0EE52
:1013B000490A18F0C9F804E7B0EE680A18F0C4F852
:1013C0009FE7B0EE680A18F0BFF8F0EE405A51E718
:1013D000B4EEE00AF1EE10FA28D4B4EEE10AF1EE30
:1013E00010FA0CD4B4EEE20AF1EE10FA38D4B4EEEE
:1013F000E30AF1EE10FA1CD4B0EE440A704770EE26
:10140000607A71EEE00AB7EE006BB7EEC11A87EEB4
:10141000A00AB7EEC07A22EE002A36EE477BB7EE7E
:10142000C20AA1EE070BB7EEC00B7047B0EE410A3F
:10143000704770EE627A73EEE22AB7EE006BB7EE99
:10144000C33A87EEA20AB7EEC07A24EE000A36EE5F
:10145000477BB7EEC00AA3EE070BB7EEC00B704791
:1014600030EE610A72EEE11AB7EE007BB7EEC22AE7
:10147000C0EE216AB7EEE65A23EE263A37EE457BF8
:10148000B7EEC30AA2EE070BB7EEC00B704700BF62
:10149000B7EEE07AB6EE005BB7EEC00AB7EE006BCF
:1014A000A7EE450B37EE067BB7EEC00BB7EEC00AD2
:1014B00027EE000BB7EEC00BB5EEC00AF1EE10FA46
:1014C00002DC9FED060A7047F7EE007AB4EEE70AF9
:1014D000F1EE10FA58BFB0EE670A70470000000046
:1014E000F7EE007AF4EEE70AF1EE10FA17D4F7EE11
:1014F000007AB7EEC00A08B531EE271A2DED028B3F
:10150000B7EE008BB7EEC11A38EE400B17F078FA41
:1015100038EE400BBDEC028BB7EEC00B08BDF5EE0C
:10152000C00AF1EE10FA05DCF7EE000A71EE200AAF
:1015300017F076BEF6EE007AF4EEE70AF1EE10FA56
:1015400001DC0DD47047B7EEE07AB6EE006B37EEF3
:10155000467B37EE077BB7EEC77B21EE071AC6E75F
:10156000B7EEE07AB0EE005BB7EE006BA7EE456B2E
:10157000B7EEC66B21EE061AD6E700BF00000000EA
:10158000F7EE007A38B52DED048BB0EE408A0446B4
:1015900037EEC00A0D469FED109BB7EEC00A20EE55
:1015A000090B17F0F9FCB7EE081B17F029FAB7EE94
:1015B000C88AB7EEC00B85ED000A28EE090B17F0BC
:1015C000EBFCB7EE081B17F01BFAB7EEC00BBDEC37
:1015D000048B84ED000A38BD1A2D4454FB21F93FD9
:1015E00060EE200AF8B5FDEEE07A04460F4617EEED
:1015F000905A002D2DED028BB0EE408A80EDCC0A82
:10160000C0F83413C0EDCE7A04DDAA0000213846BC
:1016100019F052F8B1EE047A234604F54072C7EE91
:10162000087A002683ED148AC3ED167ADE65C3E9D5
:101630000C7560339342F4D1B3EE006A0023F7EEE9
:10164000008A04F58B65002204F20441C6EE086AA4
:10165000C4F83C3300232846C4EDFC8AC4EDFF8A5D
:10166000B0EE480A9FED745B9FED757BC4E9D8230B
:1016700084EDE05B9FED745BC4E9E223C4E9EC23F5
:10168000C4E9F62384EDEA5BC4EDFE6A84EDD67B03
:1016900084EDF47BC1ED006AC4E9C42384EDC27B10
:1016A00016F03EFFDFED6A7A95ED0E7AC5ED027A0F
:1016B00087EE270AB1EE400A17F0DEFC95ED0D7AB1
:1016C000D5ED027A85ED0A0A87EE270AB1EE400AC7
:1016D00017F0D2FCD5ED006A9FED5E7AC8EEA67ACF
:1016E00095ED0E6A85ED037A85ED080AC6EE076A68
:1016F00038EEC07A77EEE87A67EE877AB1EE660A5E
:10170000C5ED097A17F0B8FC95ED087ADFED527A4D
:1017100078EEC78A94F89434504A85ED0B0A68EE47
:10172000A78A6E602A60C5ED098A03B12E61022383
:1017300004F59B6000264FF07C52C4F8D83404F5C1
:101740009365474BF7EE008A8261C3610662FFF73B
:10175000C3FA0522434B04F20450C4F80425C361C4
:1017600086610662FFF7B8FA2846B0EE480A16F01E
:10177000D7FEDFED377A95ED0E7AC5ED027A87EE6A
:10178000270AB1EE400A17F077FC95ED0D7AD5EDFA
:10179000027A85ED0A0A87EE270AB1EE400A17F0B1
:1017A0006BFCD5ED006A9FED2B7AC8EEA67A95ED1D
:1017B0000E6A85ED037A85ED080AC6EE076A38EEF3
:1017C000C07A77EEE87A67EE877AB1EE660AC5ED01
:1017D000097A17F051FC95ED087ADFED1F7A78EE63
:1017E000C78A94F8D4341D4A85ED0B0A68EEA78A9F
:1017F0006E602A60C5ED098A03B12E61022304F5EB
:10180000A6604FF07C520025C4F83035144B82613D
:10181000C3610562FFF760FA04F25C500522114BC8
:10182000C4F85C25C36185610562FFF755FABDEC1C
:10183000028BF8BDAFF300807B14AE47E17A843FA2
:10184000FCA9F1D24D62503F2D431CEBE2361A3F0A
:101850000AD7A33CCDCC4C3ECDCC4CBF0000A04021
:101860000AD7233C9A99193F70B52DED048BB0EE41
:10187000409ADFEDA17A0546044600F5407603461E
:1018800093ED137A60339E4277EE877AF8D1F7EEC4
:10189000006AF4EEE67AF1EE10FA00F34983B7EE4F
:1018A000007B95EDEC6B95EDE85B95EDEA4BB5EEC5
:1018B000C06B37EE457BF1EE10FA0FDDB0EEC73BA3
:1018C000B4EEC36BF1EE10FA40F32683D5E9F032A3
:1018D000934280F2AA830133C5F8C033A4EE075BBC
:1018E000D5F83C23D5F8343303EB8203B0EEC97A44
:1018F00095EDC44B95EDC06BB7EEC77AB5EEC04B16
:10190000F7EEC58B37EE467BF1EE10FA95EDC23B54
:1019100085EDE85B83ED009A0FDDB0EEC75BB4EEBA
:10192000C54BF1EE10FA40F3F382D5E9C8318B4292
:1019300080F274830133C5F82033A3EE076BDFED2B
:101940006E9AF7EEC67B85EDC06BC5EDCA7AF7EEF1
:10195000007AD4ED156A07EE102AF4EEE76AB8EEC5
:10196000C78AF1EE10FAC0F2B780D4ED107A94ED88
:10197000137AF5EEC07AF1EE10FA05DAB5EEC07A18
:10198000F1EE10FA40F3A8805C4B0022E06BA16CF2
:10199000D4ED170A84ED127AB1EE600AA063C4EDAB
:1019A0000F7A23646164E364626506F041FCB1EE82
:1019B000045BB7EEC00A94ED147AD4ED156AB7EE65
:1019C000C73A30EE055B85EE034BB7EEC44B84EDB2
:1019D000164AD4ED0E7A67EE277AD4E90C13FDEEA1
:1019E000E77AF8EEE77A78EE677AFDEEE77A17EEB7
:1019F000902A9A426BDBD21A9342FCDDD4ED0F7A27
:101A000001EB820227EE277A92ED006ABDEEC77ADB
:101A1000B8EEC77A38EE478AFDEEC87A17EE902AFC
:101A200093424FDCD21A9342FCDDF7EE007A01EBD1
:101A30008202D4ED125A92ED008AF4EEE76A94ED38
:101A4000115A37EEE67A66EEA55A26EE888AF1EE4E
:101A500010FAE7EE055AA6EE078A03D8D4ED167AF7
:101A600076EEA77AB0EEC87AC4ED157A94ED044B01
:101A700094ED006BB7EEC77AB5EEC04B94ED023B28
:101A8000F1EE10FA37EE467B0CDDB0EEC72BB4EE6C
:101A9000C24BF1EE10FA22DDD4E90832934221DA8A
:101AA00001332362A3EE076B6034A642E8EE259A69
:101AB000F7EEC67B04ED186B44ED0E7A20D0D5F816
:101AC0003C2344E7002AB0DAD218FDD4ADE7002A5F
:101AD00094DAD218FDD491E794ED147A79E70023D3
:101AE0002362DFE79FED027BDCE700BFAFF30080FE
:101AF000000000000000000000000000000080BFA7
:101B000095F88925B7EEE97A05F58263002A7DD03C
:101B100093ED026B13ED024B93ED005BB5EEC06BE2
:101B200037EE447BF1EE10FA11DDB0EEC73BB4EEB8
:101B3000C36BF1EE10FA40F37482D5F82824D5F87F
:101B40002C148A4280F27A820132C5F82824A5EE4C
:101B5000074B05F2045105F59B62D5F83C03D1ED26
:101B6000097A05F58B6491ED0A6A91ED011AD1EDC0
:101B7000021A91ED042AD1ED056AD1ED032A92ED06
:101B8000013AF7EEC45BD2ED023A92ED057A92ED9E
:101B9000045A79EEE59AD2ED035A03ED024BE9EED1
:101BA000817AD5F83433A9EEA16A03EB800320468D
:101BB00066EEE76AA7EEC26AE9EEA26A81ED096AFB
:101BC000D2ED099AC1ED0A6AE3EE279AD2ED0A6ACC
:101BD000E3EEA76A27EE697AE9EEC56AA5EEA77A71
:101BE000C2ED096A82ED0A7A93ED000A39EE800AA5
:101BF00016F032FDD4ED057A95F8883569EEA79A8E
:101C0000002B40F09A81B0EE698AB8E093ED025B58
:101C100013ED026B93ED004BB5EEC05B37EE467BE8
:101C2000F1EE10FA11DDB0EEC73BB4EEC35BF1EE9E
:101C300010FA40F3E681D5F82824D5F82C148A420E
:101C400080F2F6810132C5F82824A4EE076BD5F89E
:101C50003C13D5F8342305F58B6402EB8102204652
:101C600092ED000AF7EEC67B03ED026B79EEE79A80
:101C700039EE800A16F0F0FC05F58661D4ED057AA0
:101C800095F8883569EEA79A002B91ED046B09FE53
:101C9000888A91ED005BB7EEC87AB5EEC06B91ED26
:101CA000024BF1EE10FA37EE457B11DDB0EEC73B8B
:101CB000B4EEC36BF1EE10FA40F3A681D5F85034C0
:101CC000D5F85424934280F2B6810133C5F85034DC
:101CD000A4EE075B05F25C5205F5A663D5F83C035C
:101CE000D2ED097A05F5936492ED012A92ED0A6A24
:101CF000D2ED022AD2ED056A92ED043AD2ED033A12
:101D000093ED014AF7EEC51BD3ED024A93ED057A38
:101D100038EE618A81ED005BE8EE027AD5F8341383
:101D2000A8EE226A93ED045AD3ED035A01EB800129
:101D300066EEE76AA7EEC36AE8EE236A82ED096AF7
:101D400093ED098AC2ED0A6AD3ED0A6AA4EE278AE6
:101D5000E4EEA76A27EE487A2046E8EE456AA5EE4B
:101D6000A77AC3ED096A83ED0A7A91ED000A38EE8D
:101D7000000A16F071FCD4ED057A28EE278A95ED5D
:101D8000D17AD5F83C33D5F83423B7EEC77A95ED40
:101D9000E24B95EDDE5B02EB8302B5EEC04B37EE16
:101DA000457BD2ED006AF1EE10FA95EDE03B0FDDD8
:101DB000B0EEC72BB4EEC24BF1EE10FA40F3B48094
:101DC000D5E9E610814280F223810131C5F89813EC
:101DD000A3EE075BB7EE006AF7EEC57B85EDDE5B31
:101DE00027EE888A95EDFF5AE8EE286AF0EEE67A4B
:101DF000F4EEC67AF1EE10FA54BF86EE277AB0EE12
:101E0000467AB4EEC75AF1EE10FA13DC05F204413B
:101E1000B7EE003BB7EEC55A91ED004A24EE077AC3
:101E2000B7EEC44AB7EEC77A33EE444BA5EE047B57
:101E3000B7EEC77B67EE666A85EDFF7A95EDD84B06
:101E400095EDD45B95EDD63BB5EEC04BC2ED006A87
:101E500095EDD07AF1EE10FAB7EEC77A37EE457B02
:101E60000EDDB0EEC76BB4EEC64BF1EE10FA57DDE7
:101E7000D5E9DC218A4280F2CE800132C5F8702398
:101E8000A3EE075B95EDFC6AF7EE007AB7EEC57B33
:101E900085EDD45BE9EE079AF0EEE96AF4EEE76AC5
:101EA000F1EE10FA54BF87EEA67AB0EE677AB4EE80
:101EB000C76AF1EE10FA11DC95EDFE5AB7EE004B51
:101EC000B7EEC66A25EE077AB7EEC55AB7EEC77AFF
:101ED00034EE455BA6EE057BB7EEC77B0133D5F844
:101EE000382327EE290A85EDFC7A934207DB9B1AFB
:101EF0009A42FCDDC5F83C33BDEC048B70BD002B71
:101F0000F8DA9B18FDD4C5F83C33BDEC048B70BDEA
:101F10000023C5F8203310E50023C5F8C033DDE405
:101F20000022C5F87023ABE70021C5F898134FE7EE
:101F300086EEA77AB7EEC77AB3E405F58661B7EE09
:101F4000C87A91ED046B91ED004B91ED025BB5EE1B
:101F5000C06B37EE447BF1EE10FA0FDDB0EEC73BFD
:101F6000B4EEC36BF1EE10FA6BDDD5F85034D5F852
:101F70005424934269DA0133C5F85034A5EE074B77
:101F800005F25C5205F5A663D5F83C03D2ED097A5B
:101F900005F5936492ED011A92ED0A6AD2ED021AE8
:101FA000D2ED056A92ED042AD2ED032A93ED013AAF
:101FB000F7EEC45BD3ED023A93ED057A93ED045A44
:101FC00038EE658AD3ED035A81ED004BE8EE017AD5
:101FD000D5F83413A8EE216A01EB800166EEE76ABA
:101FE000A7EEC26AE8EE226A82ED096A93ED098AD9
:101FF000C2ED0A6AD3ED0A6AA3EE278AE3EEA76A66
:10200000A8E6C5F8282420E60023C5F850345FE68A
:102010009FED0F7BDCE69FED0E7B31E79FED0C7BA8
:102020008BE40022C5F8282491E59FED097B55E457
:102030009FED077B09E69FED067B49E69FED047B5C
:1020400085E50023C5F8503498E79FED017B95E7BF
:1020500000000000000000000022002310B5C0E9CD
:102060000623C0E90A23C0E90C23C0E91223C0E912
:102070001623C0E9182300230922044683638366DC
:1020800060239FED0F7BC363C36680ED087B80ED0B
:10209000147B18F06DFCB6EE007B00230AA1D1E999
:1020A000000184ED087BC4E90A01C4E9160184ED4E
:1020B000147B2046E36023612364236710BD00BFC7
:1020C000FCA9F1D24D62503FFCA9F1D24D62403FD4
:1020D000F0B500F1600300F558750022644E6024ED
:1020E0004FF07E5E002143F8382C43F8282C43F84B
:1020F000242C43F8206C43F81C2C43F8182C43F88C
:10210000146C43F80CEC9FED567B9FED576B43E945
:10211000101403ED187B03ED166B03ED147B03ED38
:10212000127B2344AB42D8D100F58267C0F8282344
:10213000F6EE005A00F59B6600F2045500F5A66C19
:1021400000F25C53C0E9C814C0E9DC14C0E9E6142D
:10215000C0E9F014C0E9FA1480EDC07B80EDC26BD9
:1021600080EDC47B80EDC67B80EDD47B80EDD66BAB
:1021700080EDD87B80EDDA7B80EDDE7B80EDE06B5F
:1021800080EDE27B80EDE47B80EDE87B80EDEA6B27
:1021900080EDEC7B80EDEE7B80EDF27B80EDF46BEF
:1021A00080EDF67B80EDF87B07ED027B87ED006B21
:1021B00087ED027B87ED047B00F58667C0F82C4431
:1021C000C0F8281487ED026B87ED007B87ED047B58
:1021D00087ED067BC0F85444264CC0F85014C0F874
:1021E000D814C6F804E072613261F260B260C6EDE4
:1021F000065A3262B2627262F461C0F80415C5F820
:1022000004E06A612A61EA60AA60C5ED065AEC61E1
:102210002A62AA626A62C0F83015CCF804E0CCF8F1
:102220001420CCF81020CCF80C20CCF80820CCEDF1
:10223000065ACCF81C40CCF82020CCF82820CCF84A
:102240002420C0F85C15C3F804E05A611A61DA6012
:102250009A60C3ED065ADC611A629A625A62F0BD56
:102260000000000000000000FCA9F1D24D62503FC8
:10227000000080BFF4FD343FF0B5D7482DED048B4E
:1022800083B0FEF7FBFC9FEDD57A30EE470A9FED59
:10229000CE6BB7EEC07AB7EE000A27EE067BB7EE3C
:1022A000C77BB5EEC07AF1EE10FA08DDB4EEC07A65
:1022B000F1EE10FA4CBF30EE470A9FEDC90AB7EEB7
:1022C000004A9FEDC71AB6EE003AC64CF0EE410A3E
:1022D000DFEDC52AF0EE443ADFEDC41AB0EE432A32
:1022E0000621BD48FFF774F884ED100AFEF728FCBC
:1022F00094ED047AF7EE007A30EE470AB4EEE70A7E
:10230000F1EE10FA00F16584B7EE008BB0EE670ACB
:1023100094ED107A84ED030AB7EEC77A94ED165B5C
:1023200094ED126B94ED144BB5EEC05B37EE467B2B
:10233000F1EE10FA0EDDB0EEC73BB4EEC35BF1EE8A
:1023400010FA40F32E85D4E91A32934280F239858F
:102350000133A366A4EE076B9FEDA11ADFEDA22A5D
:10236000DFEDA21AB7EE004AB6EE003AF0EE410AEF
:10237000F0EE443AB0EE432AB7EEC60B84ED126B92
:10238000FFF726F8B7EEC00A94ED0A6B94ED067BD2
:1023900094ED085BB5EEC06B38EE478B30EE000B6A
:1023A000F1EE10FA0EDDB0EEC84BB4EEC46BF1EEF8
:1023B00010FA40F3F284D4E90E32934280F205859C
:1023C0000133A363A5EE087BF0EE085AB0EE476B2D
:1023D000B7EEC77B84ED066BB7EEC77A37EE007BAE
:1023E000B7EEC77BB4EEE57AF1EE10FA00F1E883C0
:1023F000B0EE657A784884ED1C7AFEF733FC9FEDE9
:102400007C7A30EE470A9FED726BB7EEC07AB7EE7A
:10241000000A27EE067BB7EEC77BB5EEC07AF1EE79
:1024200010FA08DDB4EEC07AF1EE10FA4CBF30EECF
:10243000470A9FED6B0AB7EE004A9FED691AB6EEA8
:10244000003A6C4DF0EE410ADFED672AF0EE443AB7
:10245000DFED661AB0EE432A04215F48FEF7B8FFAD
:1024600085ED100AFEF76CFB95ED047AF7EE007A25
:1024700030EE470AB4EEE70AF1EE10FA00F193836A
:10248000B7EE008BB0EE670A95ED107A85ED030A82
:10249000B7EEC77A95ED165B95ED126B95ED144B83
:1024A000B5EEC05B37EE467BF1EE10FA0EDDB0EE16
:1024B000C73BB4EEC35BF1EE10FA40F36A84D5E992
:1024C0001A32934280F285840133AB66A4EE076B27
:1024D0009FED431ADFED442ADFED441AB7EE004AC0
:1024E000B6EE003AF0EE410AF0EE443AB0EE432A7E
:1024F000B7EEC60B85ED126BFEF76AFF95ED0A5B32
:1025000095ED067B95ED084BB5EEC05B38EE478B3D
:10251000F1EE10FA0EDDB0EEC83BB4EEC35BF1EEA7
:1025200010FA40F33284D5E90E32934280F255849A
:102530000133AB63A4EE087B27482F4CB7EE008A2B
:10254000F7EEC76B85ED067B36EE800A85ED1C0A3B
:10255000FEF7A0FB38EE400A03211F4884ED100A65
:10256000FEF7EEFAD4ED047A30EE670AB4EEC80A4C
:10257000F1EE10FA00F10A83B7EE005BB0EE480A04
:1025800094ED106A84ED030AB7EEC66A94ED164B1B
:1025900094ED127B94ED143BB5EEC04B36EE476BD9
:1025A000F1EE10FA2ADDB0EEC62BB4EEC24BF1EE1E
:1025B00010FA40F3E783D4E91A32934280F211848F
:1025C0000133A3661AE000BF00000021B072F03FA3
:1025D00000005CDC4603F03F200800244260653CBC
:1025E00000000000F0060024CDCC0C3F6666E63EFD
:1025F00017B7D139C014002408100024A3EE067BBD
:1026000094ED0A4B94ED066B94ED083BB5EEC04B90
:1026100035EE465BF1EE10FA84ED127BB7EEC77B28
:102620000EDDB0EEC52BB4EEC24BF1EE10FA40F366
:10263000A683D4E90E32934280F2D6830133A3639A
:10264000A3EE056BF7EE005AF7EEC67B84ED066B42
:1026500037EE877AB4EEE57AF1EE10FA00F189826E
:10266000B0EE080BB0EE657AB7EE008B84ED1C7A05
:1026700016F076F8B7EE009AC94830EE480BC94F0D
:102680009FEDC16B80EE067BB7EEC77B84ED1C7AB5
:10269000FEF7FAFA39EE400A0221C14887ED100A26
:1026A000FEF74EFAD7ED047A30EE670AB4EEC90AA7
:1026B000F1EE10FA00F15082B0EE490A97ED106A7F
:1026C00087ED030AB7EEC66A97ED165B97ED127BAE
:1026D00097ED144BB5EEC05B36EE476BF1EE10FA9A
:1026E0000EDDB0EEC63BB4EEC35BF1EE10FA40F384
:1026F0004383D7E91A32934280F279830133BB6670
:10270000A4EE067B97ED0A4B97ED066B97ED083B21
:10271000B5EEC04B38EE468BF1EE10FA87ED127B2A
:10272000B7EEC77B0EDDB0EEC82BB4EEC24BF1EEB8
:1027300010FA40F31E83D7E90E32934280F25A8397
:102740000133BB63A3EE086BF7EE005AF7EEC67BCE
:1027500087ED066B37EE877AB4EEE57AF1EE10FA84
:1027600000F1DC81B0EE080BB0EE657A87ED1C7AE3
:1027700015F0F6FFB7EE007B8B4D8C4C00269FEDDD
:10278000826B30EE470B80EE067BB7EEC77B87EDA2
:102790001C7A09E0F0EE466A0136C5ED1C6A783411
:1027A0007835092E00F0088131467D48FEF7CEF9D4
:1027B000F7EE006A9FED7E7A36EEC00A9FED745BFD
:1027C00030EE477AB7EEC77A27EE057BB7EEC77BC8
:1027D000B5EEC07AF1EE10FA00F3BB809FED757A8A
:1027E00084ED107A31466E48FEF7DEF994ED047AF6
:1027F000F7EE007A30EE470AB4EEE70AF1EE10FA8F
:1028000000F19A80B7EE005BB0EE670A94ED106AB3
:1028100084ED030AB7EEC66A94ED164B94ED127B75
:1028200094ED143BB5EEC04B36EE476BF1EE10FA6B
:102830000EDDB0EEC62BB4EEC24BF1EE10FA40F353
:102840009680D4E91A32934280F294800133A366D1
:10285000A3EE067B94ED0A4B94ED066B94ED083BDA
:10286000B5EEC04B35EE465BF1EE10FA84ED127B0F
:10287000B7EEC77B0CDDB0EEC52BB4EEC24BF1EE6C
:1028800010FA71DDD4E90E32934279DA0133A36391
:10289000A3EE056BF7EE005AF7EEC67B84ED066BF0
:1028A00037EE877AB4EEE57AF1EE10FA3CD4B0EE6A
:1028B000657A84ED1C7A31463948FEF7A5F9B7EE02
:1028C000C06A85ED100A95ED165B95ED127B95EDCE
:1028D000144BB5EEC05B36EE476BF1EE10FA0CDD33
:1028E000B0EEC63BB4EEC35BF1EE10FA39DDD5E9CC
:1028F0001A32934241DA0133AB66A4EE067BB7EE9F
:10290000006AF7EEC76B85ED127BF4EEC66AF1EE56
:1029100010FA7FF53FAFFFEE007AF4EEE76AF1EED2
:1029200010FA76FEA76A37E7B5EEC07AF1EE10FA34
:10293000BFDC9FED207ABCE7FFEE007AB4EEE70A39
:10294000F1EE10FA00F37382BFEE005BB0EE670A9F
:102950005CE7B4EEE67AF1EE10FA58BFB0EE667AB4
:102960003EE70023AB66C8E70023A36390E700239C
:10297000A3666DE79FED086B6AE79FED076BBCE709
:102980009FED055B84E700BF643BDF4F8D1743403D
:102990000000F0263108F03F0000000000000000B9
:1029A00020080024A807002480100024D00B002455
:1029B0006F12833A000000009148FEF759F9F7EED4
:1029C000006A9FED907A36EEC00A9FED895B30EE8B
:1029D000477AB7EEC77A27EE057BB7EEC77BB5EE31
:1029E000C07AF1EE10FA00F3AF809FED877A874C42
:1029F0000521834884ED107AFEF7A2F8D4ED046A2D
:102A0000F7EE007A30EE668AB4EEE78AF1EE10FA5D
:102A100000F19180B0EE678A7D4D002384ED038A3A
:102A200095ED037AD5ED007A77EE076A2367F8EE25
:102A3000E77AF4EEE67AF1EE10FA40F3F18094EDE5
:102A4000107A94ED166B94ED124BB7EEC77AB5EE93
:102A5000C06B94ED145BF1EE10FA37EE447B0EDDA3
:102A6000B0EEC73BB4EEC36BF1EE10FA40F3C88191
:102A7000D4E91A32934280F2C9810133A366A5EEEC
:102A8000074BB2EE001BB7EEC87A94ED0A3B94ED0B
:102A9000065B94ED082BB7EEC46BB5EEC03B37EE8A
:102AA000457BB7EEC66AF1EE10FA26EE066B84EDB2
:102AB000124B26EE018B0EDDB0EEC76BB4EEC63BBB
:102AC000F1EE10FA40F39981D4E90E32934280F28C
:102AD0009A810133A363A2EE075BB1EE041BB0EE53
:102AE000000BB7EEC57B84ED065BB7EEC77A27EE29
:102AF000011B15F085FF88EE007BB7EEC77BDFED8D
:102B0000457AB4EEE77AF1EE10FA58BFB0EE677A84
:102B100084ED1C7A03B0BDEC048BF0BDDFED3E7A92
:102B2000B4EEE77AF1EE10FA00F37681B0EE677A50
:102B30009FED310B1AE6FFEE007AB4EEE78AF1EE74
:102B400010FA38FE278A67E7B4EEE67AF1EE10FA5B
:102B500058BFB0EE667A4AE7FFEE007AB4EEE70AB5
:102B6000F1EE10FA00F35581BFEE008BB0EE670A6C
:102B7000A4E5DFED297AB4EEE77AF1EE10FA00F37E
:102B80006181B0EE677A9FED1C0B6DE5FFEE007A78
:102B9000B4EEE70AF1EE10FA00F35081BFEE005BED
:102BA000B0EE670AECE4FFEE007AB4EEE70AF1EE6D
:102BB00010FA00F33F81BFEE008BB0EE670A63E4CA
:102BC000B5EEC07AF1EE10FA3FF714AC9FED0E7A35
:102BD00010E4FFEE007AB4EEE70AF1EE10FA00F32B
:102BE0002281BFEE008BB0EE670AFFF791BB00BFFA
:102BF00000005CDC4603F03F000000D07493683FA7
:102C00002008002417B7D13900000000381500242F
:102C1000C0060024000016436F12833AFA7EAA3ED3
:102C2000D5ED017AF8EEE77AC7EE876AF5EEC06A6D
:102C3000F1EE10FA7FF703AF94ED107AB7EE000BC8
:102C4000B2EE086B01A8B7EEC77AB7EE001AFFEE36
:102C5000008A30EE470B20EE060BB7EEC00BB5EE48
:102C6000C00AB0EEC00AF1EE10FA58BFF0EE418A89
:102C700016F09EFA5FED177A7B4BB4EEE70ADFEDB4
:102C80007B7AF1EE10FAB4EEE70A44BF019A1A60BB
:102C9000F1EE10FA64DC93ED001AB2EE047A01A8AA
:102CA000FFEE007AF7EE006A28EE077A68EE818A76
:102CB000B5EEC07AB0EEC70AF1EE10FA54BFB0EE2E
:102CC000668AB0EE678A16F073FADFED697A694BAF
:102CD000B4EEE70ADFED657AF1EE10FAB4EEE70A3A
:102CE00044BF019A1A60F1EE10FA61DCD3ED007A6C
:102CF000E8EE278AB0EE000BB7EEE81A15F080FE7A
:102D000095ED037AD5ED007A77EE076A6B68F8EEF9
:102D1000E77A9FED515BF4EEE67A20EE050BF1EEDB
:102D200010FAB7EEC00B40DC07EE903AF8EEE77A07
:102D3000C7EE876ADFED507A86EE807AB4EEE77AE6
:102D4000F1EE10FA7FF7DBAEF6EE006ADFED4A7ABD
:102D500027EE267AB4EEE77AF1EE10FAF4DCCEE64E
:102D6000F7EE007A9DED011A31EE271A83ED001A75
:102D700093E70023BB63E5E40023BB66C0E40023C4
:102D8000A3635DE40023A36638E40023AB63FFF78D
:102D9000D1BB0023AB66FFF799BB0023A363FFF70A
:102DA00011BB0023A366FFF7D5BADFED346AC1E794
:102DB000B7EE007ADDED017A77EE877AC3ED007A1F
:102DC00096E79FED277BFFF7C5BA9FED258BFFF7B1
:102DD000F9BA9FED237BFFF779BB9FED218BFFF7BE
:102DE000A9BB9FED1F6B09E49FED1D5B28E49FEDE0
:102DF0001C6B85E49FED1A8BA4E40023A3636AE6B1
:102E00000023A3663BE69FED167B64E69FED147BF3
:102E100035E6B7EEC08A51E4B7EEC70AB0EE086BEC
:102E200020EE060BA2E4B7EEC08AFFF771BAB7EE48
:102E3000C05AEBE4B7EEC08AFFF726BBB7EEC05A24
:102E4000FFF79EBBB7EEC70AB0EE086B20EE060B8D
:102E50000AE400BFAFF30080000000000000903FD4
:102E60000000000000000000B415002483C02A3FC9
:102E7000FA7EAA3EB01500240000164300000000B0
:102E80002DE9F04F2DED048B87B08946D14C01928E
:102E9000039005F0AFFED04A04F5407ACF4B2546AB
:102EA000CF4E274698601368CE480133DFF8608321
:102EB0001360FDF737FECB48FDF740FEFFF7DCF966
:102EC000327803E0574508F12C081AD007F5B763AC
:102ED000D7ED0A7A603793ED000AF4EEC07AF1EE8E
:102EE00010FA58BFB0EE670A002AEBD0404602F055
:102EF00089FD404602F098FD5745327808F12C08CC
:102F0000E4D1B94BD5EDCA7A93ED000AB4EEE70AE5
:102F1000F1EE10FA30FE270A002A40F0A981B34AE8
:102F2000B34F92ED1C8ADFF8EC82B24ADFF8E8A2D8
:102F3000B148166FD8ED1C8A97ED1C9A03F0BEFEBF
:102F40008346AE4803F0BAFE0290504685EDD09A13
:102F5000C5EDD18A40F81869C5EDD28AFDF7BCFEEF
:102F60000AF114008AED0B8AFDF7B6FE0AF1400063
:102F7000CAF85860FDF7B0FE0AF16C008AED218AAC
:102F8000FDF7AAFE029B0AF5B2610AF5AF6085F86B
:102F9000893585F888B50E608AEDF89ACAEDF98A08
:102FA000CAEDFA8AFDF798FE0AF2BC510AF2A45063
:102FB00081ED008AFDF790FE0AF5BD610AF5BA6061
:102FC0000E600AF1E006FDF787FE0AF214610AF2CC
:102FD000FC50DFF848A281ED008AFDF77DFE029BE0
:102FE00085F818BB85F8193B0125DFF834B229466E
:102FF0007C4808EE105AFDF707FE05A904A8FEF765
:10300000BFFABAEEEE8AB0EE041ADAED1C0A013508
:103010007837B0EE480A6034FEF762FA98ED1C7A11
:10302000B7EE004B9DED045AB7EEC77AD7ED1C6A98
:103030009BED1C6AB0EE041A66EE856ADFED705AED
:1030400037EE447BDAED1C0A20EE066A6036B0EEFD
:10305000480A44ED056AB5EEC07B04ED086AF1EE5E
:1030600010FAC8BFF7EEC75B44ED015AFEF738FA15
:1030700098ED1C7AB7EE005B9BED1C6AB7EEC77A41
:10308000D7ED1C6ADDED054A20EE060A9FED5C6A6D
:1030900037EE457B66EEA46A06ED180AB5EEC07BF6
:1030A00046ED156AF1EE10FAC8BFB7EEC76B092DF1
:1030B00006ED116A9BD1019B002B5ED0514C00277D
:1030C000484EDFF860A1251DDDF80C8096F8D6315A
:1030D0004D48002B79D003F0F1FD80F00100C3B220
:1030E000002B6CD09AF808200020002A67D1DAF86B
:1030F0000020DAED037A07EE102A77EEA77AB8EE11
:10310000C77AB4EEE77AF1EE10FA0ADCDAF80410C6
:103110000A4407EE102ABAEEEF7BFDEEC77B17EEEE
:10312000902ACAE90002D8E900218AF808304FEA5B
:10313000870B02EB8703274801EB870C013793EDE0
:10314000000A9CED008AFEF78FFBF0EE407A2F48D4
:10315000B0EE480AC4ED007AFEF786FBD9F80020ED
:10316000D9F8043020685A4485ED000A5B441060A9
:103170002A681A60019BBB42A8D105F03BFD174BA2
:103180009A6893ED017A821A1B7807EE902AF8EE7E
:10319000677A67EE877A002B46D0104A0023C2ED8B
:1031A000057AC2ED037AC2ED047A13700A4A1368F5
:1031B000013B136007B0BDEC048BBDE8F08FDAF87B
:1031C00000200132CAF80020ADE70F4803F076FD79
:1031D000034685E7B8150024EC060024D006002439
:1031E000B814002420080024701E0024A80700241E
:1031F000D00B002408100024680700247C0700245A
:1032000000000000D8200024E0090024481B00240E
:103210006C0A0024F0060024A81A0024C01400241C
:1032200038150024C0060024154B93ED047AF4EE03
:10323000C77AF1EE10FAC8BFC3ED047A104B93EDD4
:10324000037AF4EEC77AB7EE007AF1EE10FA48BFCF
:10325000C3ED037A0A4BD3ED066A93ED056A37EEA8
:10326000667A27EE067AA7EEA67A83ED057A9DE7C1
:10327000044802F0C7FB034802F0D6FB4FE600BF4C
:10328000D0060024400A002438B58B482DED048B6D
:1032900002F06CFC894890F8D63100F5E07053B12B
:1032A00003F00CFD80F00100C4B24CB900242046AC
:1032B000BDEC048B38BD03F001FD0446002CF5D0B5
:1032C00004217E48FDF73CFCB7EEC00A9FED748BED
:1032D000B4EEC80BF1EE10FAE8DD9FED739BB4EE8F
:1032E000C90BF1EE10FAE1D505217448FDF728FC71
:1032F000B7EEC00AB4EEC80BF1EE10FAD6DDB4EEAC
:10330000C90BF1EE10FAD1D506216C48FDF718FC77
:10331000B7EEC00AB4EEC80BF1EE10FAC6DDB4EE9B
:10332000C90BF1EE10FAC1D502216448FDF708FC83
:10333000B7EEC00AB4EEC80BF1EE10FAB6DDB4EE8B
:10334000C90BF1EE10FAB1D503215C48FDF7F8FB8B
:10335000B7EEC00AB4EEC80BF1EE10FAA6DDB4EE7B
:10336000C90BF1EE10FAA1D501215448FDF7E8FB95
:10337000B7EEC00A9FED4A7BB4EEC70BF1EE10FA30
:1033800094DDB4EEC90BF1EE10FA8FD5B7EE009ACA
:103390004A48FDF76DFCDFED4A0A39EE400AFEF7B8
:1033A00077F8B7EEC00A9FED428BB4EEC80BF1EE92
:1033B00010FA3FF57BAF4148FDF754FCDFED400AC2
:1033C00039EE400AFEF764F8B7EEC00AB4EEC80B57
:1033D000F1EE10FA3FF56AAF3848FDF74FFCDFED2C
:1033E000380A39EE400AFEF753F8B7EEC00AB4EED9
:1033F000C80BF1EE10FA3FF559AF3048FDF74AFC23
:10340000DFED2F0A39EE400AFEF742F8B7EEC00AA8
:10341000B4EEC80BF1EE10FA3FF548AF2748FDF7C0
:1034200033FCDFED270A39EE400AFEF731F8B7EE3C
:10343000C00AB4EEC80BF1EE10FA3FF537AF002525
:1034400029461E48FDF7B0FBB7EEC00A9FED146B8E
:103450009FED157BB4EEC60BF1EE10FA7FF726AFA9
:10346000B4EEC70B294615480135F1EE10FA7FF589
:103470001DAFFDF76BFBF7EE007ADFED110A37EEBB
:10348000C00AFEF705F8B7EEC00A9FED097BB4EE5F
:10349000C70BF1EE10FA3FF509AF092DD0D106E7C1
:1034A000B81E85EB51B89EBFB81E85EB51B89E3F44
:1034B000666666666666EE3F44BC01082008002426
:1034C0006F12033B2DE9F04F41F2883A04469AFB14
:1034D000F1FABAF1000F2DED028B93B02DDD894684
:1034E0004FF000089A4B00259A4EA3FB08235B0877
:1034F00003EBC303A8EB0307C7F10807B7EE000A05
:10350000AF42DFED957A304605F1010500FE270A4E
:1035100002F078FA304602F087FA092D06F12C06FF
:10352000ECD1484605F06CFBFFF7AEFE002800F03A
:10353000F38008F10108D045D4D1002304F1140828
:10354000242200212360404663600027A36004F129
:103550003805E3602361DFF828B217F0ADF8DFF833
:1035600024A27E4E7E4802F001FBDBED037A434647
:10357000D4ED005A94ED016A75EEA75A7949D4ED5D
:10358000026A94ED037AC4ED005ADAED035AD4EDE1
:10359000047A36EE256A744ACDF8048084ED016A17
:1035A00091ED036A714976EE866AC4ED026AD1ED47
:1035B000036A6F4937EE267A84ED037A91ED037A38
:1035C00077EE877AC4ED047AD2ED037A783293ED00
:1035D000007A77EE877AE3EC017AAB42F4D1B7EE6A
:1035E000008A0A2005F00CFBDFF86891DFED5A7ABB
:1035F00017F0040F08FE278A4846B0EE480A02F08A
:1036000001FA484609F12C0902F00EFA4E45F3D1B1
:103610000137802FA9D1DFED577A94ED005AD4ED10
:10362000015A94ED026A25EE275AD4ED036A65EE3D
:10363000A75A94ED047A26EE276A66EEA76A019BE4
:1036400067EE277A84ED005AC4ED015A84ED026AD0
:10365000C4ED036AC4ED047AD3ED007A9FED457A98
:1036600067EE877AE3EC017AAB42F5D1424E022352
:1036700004AC06F14005B36703930FCD0FC40FCD23
:103680000FC40FCD0FC495E8030084E80300D6E90A
:10369000000104F0CFFC044605F04CFC002840D1AA
:1036A00094ED017AD6ED107AB4EE677AF1EE10FA65
:1036B0003CD194ED027AD6ED117AB4EE677AF1EE50
:1036C00010FA33D194ED037AD6ED127AB4EE677A1C
:1036D000F1EE10FA2AD194ED047AD6ED137AB4EE15
:1036E000677AF1EE10FA21D194ED057AD6ED147ACD
:1036F000B4EE677AF1EE10FA18D104F118031F4AFC
:103700003C34B3EC017AF2EC017AB4EE677AF1EE74
:1037100010FA0BD19C42F4D113B0BDEC028BBDE882
:10372000F08F3C21204605F09DF9B9E7D6E900016C
:1037300001F13C0204F094FB03AB3C22D6E900010A
:1037400004F088FB13B0BDEC028BBDE8F08F00BF26
:10375000398EE338400A002400000000CC0B00241E
:1037600060BC0108F0060024D00B002408100024DF
:10377000A80700240000003C44060024980600240A
:1037800038150024C0140024F0B5DF4CDF48D4ED18
:10379000057AB0EEE76AF5EEC07AFDEEC67AF1EE94
:1037A00010FAB8EEE77A17EE902A4CBF2D212021AF
:1037B00036EE476A2DED028BB7EEC66A8BB09FEDF1
:1037C000CE8B26EE086BFDEEC67B17EE903A02F02C
:1037D000CDF9D4ED037ACE48B0EEE76AF5EEC07AC3
:1037E000FDEEC67AF1EE10FAB8EEE77A17EE902AFF
:1037F0004CBF2D21202136EE476AB7EEC66A26EE71
:10380000086BFDEEC67B17EE903A02F0AFF9D4EDEF
:10381000047AC048B0EEE77AF5EEC07AFDEEC77ADA
:10382000F1EE10FAF8EEE76A17EE902A4CBF2D2160
:10383000202137EE667AB7EEC77A27EE087BFDEED9
:10384000C77B17EE903A02F091F9B34BB348196871
:1038500002F08CF9B24802F089F9B24890F8D631FA
:1038600000F5E070002B00F0A28303F027FA80F04F
:103870000100C3B2AC4AAD49AD48002B08BF1146A8
:1038800002F074F9AB49AC48D1ED1C5AD1ED106A85
:10389000D1ED037AB0EEE55AD1ED041AB0EEE66A46
:1038A000B0EEE77AB0EEE14ABDEEC52AFDEEC63ACB
:1038B000BDEEC73AFDEEC42AF5EEC05ACDED023A90
:1038C000B8EEC21A8DED053AF8EEE34ACDED082ABE
:1038D000F1EE10FAF8EEC35AF5EEC06AF8EEE26ABD
:1038E00048BF2D2235EE415A58BF202236EE646A79
:1038F00037EE657A34EE664AF1EE10FAB7EEC55A45
:10390000F5EEC07AB7EEC66A48BF2D23B7EEC77A88
:1039100058BF2023B7EEC44AF1EE10FA0193F5EE3A
:10392000C01A9FED778B4CBF2D232023F1EE10FAA8
:1039300025EE085B049312EE103A4CBF2D24202490
:1039400026EE086B079427EE087B24EE084BBDEEAD
:10395000C55BBDEEC66BBDEEC77BBDEEC44B8DED4A
:10396000005A8DED036A8DED067A8DED094A02F05D
:10397000FDF872497048D1ED1C5AD1ED106AD1EDB5
:10398000037AB0EEE55AD1ED041AB0EEE66AB0EE75
:10399000E77AB0EEE14ABDEEC52AFDEEC63ABDEECD
:1039A000C73AFDEEC42AF5EEC05ACDED023AB8EEA4
:1039B000C21A8DED053AF8EEE34ACDED082AF1EE94
:1039C00010FAF8EEC35AF5EEC06AF8EEE26A48BFA4
:1039D0002D2235EE415A58BF202236EE646A37EE6A
:1039E000657A34EE664AF1EE10FAB7EEC55AF5EE96
:1039F000C07AB7EEC66A48BF2D23B7EEC77A58BF64
:103A00002023B7EEC44A25EE085B019326EE086B2F
:103A100027EE087B24EE084BF1EE10FAF5EEC01A03
:103A2000BDEEC55B4CBF2D232023F1EE10FABDEE99
:103A3000C66B0493BDEEC77B12EE103ABDEEC44BCD
:103A40004CBF2D2420248DED005A8DED036A079480
:103A50008DED067A8DED094A02F088F8384936482E
:103A6000D1ED1C5AD1ED106AD1ED037AB0EEE55AD2
:103A7000D1ED041AB0EEE66AB0EEE77AB0EEE14AB4
:103A8000BDEEC52AFDEEC63ABDEEC73AFDEEC42A2C
:103A9000F5EEC05ACDED023AB8EEC21A8DED053AF8
:103AA000F8EEE34ACDED082AF1EE10FAF8EEC35A2B
:103AB000F5EEC06AF8EEE26A48BF2D2235EE415AB3
:103AC00058BF202236EE646A37EE657A34EE664AD5
:103AD000F1EE10FAB7EEC55AF5EEC07AB7EEC66A47
:103AE00048BF2D23B7EEC77A58BF2023B7EEC44A8C
:103AF00028E000BFAFF300800000000080842E416A
:103B000000000000006AF840D006002480BC0108D4
:103B100094BC0108A8BC0108EC060024BCBC010848
:103B20005CBC0108200800247CBC010878BC0108AA
:103B3000D0BC0108C0140024DCBC010838150024E6
:103B4000F006002425EE085B019326EE086B27EEB5
:103B5000087B24EE084BF1EE10FAF5EEC01ABDEE2C
:103B6000C55B4CBF2D232023F1EE10FABDEEC66BD2
:103B70000493BDEEC77B12EE103ABDEEC44B4CBFB2
:103B80002D2420248DED005A8DED036A07948DEDD0
:103B9000067A8DED094A01F0E9FFE349E348D1EDEA
:103BA0001C5AD1ED106AD1ED037AB0EEE55AD1ED91
:103BB000041AB0EEE66AB0EEE77AB0EEE14ABDEE86
:103BC000C52AFDEEC63ABDEEC73AFDEEC42AF5EEB3
:103BD000C05ACDED023AB8EEC21A8DED053AF8EEB4
:103BE000E34ACDED082AF1EE10FAF8EEC35AF5EEED
:103BF000C06AF8EEE26A48BF2D2235EE415A58BF3E
:103C0000202236EE646A37EE657A34EE664AF1EECB
:103C100010FAB7EEC55AF5EEC07AB7EEC66A48BFDD
:103C20002D23B7EEC77A58BF2023B7EEC44A25EE3E
:103C3000085B019326EE086B27EE087B24EE084B09
:103C4000F1EE10FAF5EEC01ABDEEC55B4CBF2D23A8
:103C50002023F1EE10FABDEEC66B0493BDEEC77BD8
:103C600012EE103ABDEEC44B4CBF2D2420248DED36
:103C7000005A8DED036A8DED067A8DED094A0794A1
:103C800001F074FFAA49A948D1ED1C5AD1ED106A80
:103C9000D1ED037AB0EEE55AD1ED041AB0EEE66A42
:103CA000B0EEE77AA34CB0EEE14ABDEEC52A04F5CA
:103CB0008767FDEEC63ABDEEC73AFDEEC42AF5EEC3
:103CC000C05ACDED023AF8EEE34A8DED053AF8EE32
:103CD000C35ACDED082AF1EE10FAB8EEC21AF5EE8D
:103CE000C06AF8EEE26A48BF2D2235EE415A58BF4D
:103CF000202236EE646A37EE657A34EE664AF1EEDB
:103D000010FAB7EEC55AF5EEC07AB7EEC44A48BF0E
:103D10002D23B7EEC66A58BF2023B7EEC77A25EE2B
:103D2000085B019326EE086B27EE087B24EE088BD8
:103D3000F1EE10FAF5EEC01ABDEEC55B4CBF2D23B7
:103D40002023F1EE10FABDEEC66B0493BDEEC77BE7
:103D500012EE103ABDEEC88B4CBF2D2520258DEDFF
:103D6000005A8DED036A8DED067A8DED098A07956F
:103D700001F0FCFE704801F0F9FED4ED1C5A21461A
:103D8000D4ED106A783454ED1B7AB0EEE57A54ED38
:103D90001A0AB0EEE66AB0EEE75A6448B0EEE04ABE
:103DA000BDEEC71AFDEEC62ABDEEC52AFDEEC41A49
:103DB00011EE103AF5EEC05ACDED022AF8EEE24AC5
:103DC0008DED052AF8EEC25ACDED081AF1EE10FA83
:103DD000B8EEC10AF5EEC06AF8EEE16A48BF2D22DE
:103DE00037EE407A58BF202236EE646A34EE664AD7
:103DF00035EE655AF1EE10FAB7EEC66AF5EEC07A06
:103E0000B7EEC55A48BF2D25B7EEC77A58BF202553
:103E1000B7EEC44AF1EE10FA0195F5EEC00A9FED37
:103E2000403B4CBF2D262026F1EE10FA27EE037BF7
:103E300004964CBF4FF02D0C4FF0200C26EE036B78
:103E4000CDF81CC025EE035B24EE034BBDEEC77B13
:103E5000BDEEC66BBDEEC55BBDEEC44B8DED007A0D
:103E60008DED036A8DED065A8DED094A01F07EFE57
:103E7000A74282D1314C304804F5876701F076FEC5
:103E8000D4ED1C5A2146D4ED106A783454ED1B7AD7
:103E9000B0EEE57A54ED1A0AB0EEE66AB0EEE75AF3
:103EA0002248B0EEE04ABDEEC71AFDEEC62ABDEECE
:103EB000C52AFDEEC41A11EE103AF5EEC05ACDED4A
:103EC000022AF8EEE24A8DED052AF8EEC25ACDED4F
:103ED000081AF1EE10FAB8EEC10AF5EEC06AF8EE73
:103EE000E16A48BF2D2237EE407A58BF202236EED5
:103EF000646A34EE664A35EE655AF1EE10FAB7EEB2
:103F0000C66AF5EEC07AB7EEC55A48BF2D25B7EEA2
:103F1000C77A58BF2025B7EEC44AF1EE10FA0FE079
:103F200000000000006AF840A8070024DCBC01087B
:103F300008100024D00B00245CBC01088010002471
:103F40000195F5EEC00A9FED1C3B4CBF2D262026A7
:103F5000F1EE10FA27EE037B04964CBF4FF02D0CC8
:103F60004FF0200C26EE036BCDF81CC025EE035B52
:103F700024EE034BBDEEC77BBDEEC66BBDEEC55B4D
:103F8000BDEEC44B8DED007A8DED036A8DED065AC2
:103F90008DED094A01F0EAFDA7427FF471AF0848B0
:103FA0000BB0BDEC028BBDE8F04001F0DFBD02F0CC
:103FB00085FE03465EE400BF00000000006AF84092
:103FC0005CBC0108000000002DE9F043C648002455
:103FD000C64FC74E3D462DED028BA3B0FCF790FBBC
:103FE000002001F0D1FD0721BF48FCF73DFD0D2366
:103FF000062101228DF811308DF81010BD4804996A
:1040000001F0CCFCBC4B9FEDBD0A002219785B7817
:10401000BB4841EA032101F0D3FCBA4B9FEDB70A3C
:10402000002219785B78B84841EA032101F0C8FC06
:10403000B64B9FEDB20A002219785B78B44841EA8A
:10404000032101F0BDFCB34B9FEDAC0A00221978AF
:104050005B78B14841EA032101F0B2FCAF4B9FED20
:10406000A70A002219785B78AD4841EA032101F0E4
:10407000A7FCAC4B9FEDA10A002219785B78AA48F7
:1040800041EA032101F09CFCA84B9FED9C0A002211
:1040900019785B78A64841EA032101F091FCA54B11
:1040A0009FED960A002219785B78A34841EA032124
:1040B00001F086FCA14B9FED910A002219785B78F4
:1040C0009F4841EA032101F07BFC22469D4913A849
:1040D00016F02EFC13A930460A2216F049FC22469F
:1040E000994913A8013416F023FC28460A2213A983
:1040F000783616F03DFC092C05F17805E5D1934B97
:104100004FF00009924805AC1A7859780123CDF890
:10411000009042EA01214A4602F0EAFC8D4BCDF8BC
:1041200000901A78597801238B4842EA01214A46C7
:1041300002F0DEFC03216C48FCF7C0FC6A48FCF787
:10414000EDFCBDEEC00A854B6748F8EEC07ADFF89B
:10415000388208F1080608F14005C3ED037AFCF740
:10416000DDFC6148B0EE408AFCF7D8FCB0EE406A56
:104170007B49B0EE480A7B48B7EEC66A9FED564BC6
:104180009FED575B84EE067B37EE057BF7EEC70BA2
:10419000CDED030AFDF724FAB0EE480ADDED030A7F
:1041A00071497248FDF71CFA242249460AA816F004
:1041B00083FA0023A4460993059306930793089373
:1041C0000FCC0FC60FCC0FC60FCC0FC694E8030060
:1041D00086E80300BCE80F000FC5BCE80F000FC560
:1041E000BCE80F000FC594E80300C8F8049085E808
:1041F00003004946D8F8000003F01CFF03685A1E6C
:10420000012A00F2E880041D08F14005C8F8783062
:104210000FCC0FC50FCC0FC50FCC0FC594E8030012
:1042200085E8030030480026FCF778FC2E48B0EE05
:10423000408AFCF76DFC07EE900AF8EEE78A04F07E
:1042400071FE9FED4B5A07EE900AB7EE007A494B8C
:10425000C8EE285A0121484A19702348474988EE78
:10426000886ADA601A615A61F8EE677AC5EE256AE3
:1042700067EE867A87EE276A36EE877AC6EE877A09
:1042800083ED016AC3ED067AFCF7EAFB1C4D0024BE
:10429000B7EE000AA642DFED3A7A284604F101049F
:1042A00000FE270A01F0AEFB284601F0BDFB092CF9
:1042B00005F12C05ECD10136642004F0A1FC092E97
:1042C000E4D1FEF7E1FF002840F0EC802D4AD8F859
:1042D00040105BE0AFF300800000000000407F4032
:1042E0000000000000C0624020080024D00B002421
:1042F00080100024900700249CBD010800007A442F
:10430000400A002498BD01086C0A002494BD0108ED
:10431000980A002474BD0108C40A002470BD010875
:10432000F00A002484BD01081C0B00246CBD0108A8
:10433000480B002478BD0108740B00247CBD0108E3
:10434000A00B002428BD010830BD0108A0BD010854
:104350006807002480BD01087C070024C0060024F3
:10436000A083B7C1B8150024000000C0481B00247A
:10437000DB0FC940D00600240000C07F812E00085A
:104380000000000038150024440600244A4B116147
:104390004A4AD8F84410D8F84C001161484AD8F875
:1043A00048101161474AD8F85010116103F12401F7
:1043B000454A106153F8042B7837994247F8682C26
:1043C000F8D1424B01221A70FFF7DEF940F24D108E
:1043D00004F016FCF8E7012308F1400514AC139330
:1043E000C8F878300FCD0FC40FCD0FC40FCD0FC458
:1043F00095E8030084E80300D8E9000103F01AFE01
:10440000044604F097FD002851D194ED017AD8EDCF
:10441000107AB4EE677AF1EE10FA34D194ED027AA4
:10442000D8ED117AB4EE677AF1EE10FA2BD194ED53
:10443000037AD8ED127AB4EE677AF1EE10FA22D14F
:1044400094ED047AD8ED137AB4EE677AF1EE10FAAF
:1044500019D194ED057AD8ED147AB4EE677AF1EEBD
:1044600010FA10D104F11803134A3C3402E0A342BD
:104470003FF4D8AEB3EC017AF2EC017AB4EE677A8D
:10448000F1EE10FAF3D0D8F80410D8F8000001F1DA
:104490003C0203F0E5FC13AB3C22D8E9000103F039
:1044A000D9FCBFE664210A48FFF70CF80EE73C216F
:1044B000204604F0D7FAA8E798060024C014002488
:1044C000F0060024A807002408100024B8140024D3
:1044D0008406002438B54B4800234FF60B744A4A33
:1044E000036283634949C0E90A34C0E97043C0E903
:1044F0007643C0E97C43C0E98143C0E90333C0E9A6
:104500000C33C0E97233C0E97833C0E97E33C0E9C7
:10451000833314F01DF93E493E48FDF79DFD3E49A9
:104520003E48FDF799FD3E493E48FDF795FD3E4C5E
:104530003E493F4804F58765FDF78EFD3D493E48FD
:10454000FDF78AFD204678343C49FDF785FDAC42F5
:10455000F8D13B4C04F58765204678343749FDF7A0
:104560007BFDA542F8D10024364D374B3822214639
:1045700005F10800C5E9003416F09EF838222146FE
:1045800005F1400016F098F830484FF60B731E4ABC
:104590002F49AC67C0E90034C0E9024414F0D8F8F0
:1045A0002C4B03F5C6702C3300240B21FF228342D1
:1045B00043F8104C03F8141C03F8132C43E903448C
:1045C000F1D1114A2046244914F0C2F8234B244A61
:1045D0004FF60B712348C3E90014C2E90014C3E984
:1045E0000244C2E90244FDF773FD1F48FDF770FD68
:1045F000054A1E491B4814F0ABF81D4BC3E90044A3
:104600001C7238BD2008002400000024CD0C0008D6
:104610003CBD01083815002444BD0108F006002403
:1046200050BD0108C0140024D00B002458BD01085F
:10463000A807002464BD0108081000245CBC010820
:1046400080100024440600242C0800249007002435
:10465000C90C0008400A0024D10C00087C07002483
:1046600068070024B8150024481B0024D50C000856
:10467000C006002407490022074B01F1600010B476
:10468000302459601A611C601A755DF8044BC3E947
:1046900002027047C0000030E0200024F0B58C23F7
:1046A00087B00160002203710124FA26194605AB88
:1046B0008DF814200296402200932346019405466B
:1046C00002F024FD002840F09B809DF814300DF18D
:1046D00017074022284603F07F030097CDE90146E3
:1046E0008DF814308DF817302346297902F034FD07
:1046F000002840F08580042004F082FA05AB4022B7
:10470000284600932346CDE90146297902F0FEFCB4
:10471000002875D19DF8143040220097284603F0F8
:10472000BF03CDE901468DF814308DF817302346CC
:10473000297902F011FD002862D1042004F060FA0A
:104740000DF115034322284600932346CDE9014687
:10475000297902F0DBFC002852D10DF11603482222
:10476000284600932346CDE90146297902F0CEFC84
:10477000002845D19DF8153043220097284643F084
:1047800001038DF815308DF817309DF8163043F081
:104790000103CDE901468DF816302346297902F050
:1047A000DBFC68BB9DF816304822009728468DF840
:1047B00017302346CDE90146297902F0CDFCF8B93E
:1047C00005AB4022284600932346CDE901462979CE
:1047D00002F09CFCA0B99DF81420234601942846C1
:1047E00002F0CF0402960097402229798DF81440F8
:1047F0008DF8174002F0B0FC003818BF012000E02F
:10480000012007B0F0BD00BFF0B5102387B0234CE6
:10481000012200250126002702A920460195CDE9A5
:1048200002234FF48052CDE904670DF021FA642091
:1048300005F006F902A94FF480522046CDE904673D
:1048400002261027CDE902670DF012FA0322102389
:1048500002A92046CDE9022300230422CDE9042346
:104860004FF480520DF004FA40F23223042202A9E0
:10487000019310232046CDE90223019A01230592DA
:104880004FF4805204930DF0F3F940F606012046F0
:104890000DF00EFA284607B0F0BD00BF002100243D
:1048A0001C4B00221C494FF0400C30B5054689B026
:1048B0000220596007219A601A620124DA620A22F2
:1048C0004FF4006EDC6006922022CDE90001042046
:1048D0000821CDE9020103201021CDE904010820BF
:1048E0006946C3E904024FF4C072181DC3E906C249
:1048F0004FF48052C3E909E20DF090F938B9284627
:10490000FFF782FF003818BF012009B030BD2046F4
:1049100009B030BDFC20002440410052614A002112
:10492000D0B513688EB00A91002B40F0B9805E4B71
:1049300001214FF683700C2411600221D3F8D4209A
:104940000026032742F48052C3F8D420D3F8D420A1
:1049500002F480520092009AD3F8E02042F0100254
:10496000C3F8E020D3F8E02002F010020192019A8F
:10497000D3F8E02042F04002C3F8E020D3F8E02072
:1049800002F040020292029AD3F8E02042F00802BC
:10499000C3F8E020D3F8E02002F008020392039A63
:1049A000D3F8E02042F48072C3F8E020D3F8E0208E
:1049B00002F480720492049AD3F8E02042F080025C
:1049C000C3F8E020D3F8E02002F080020592059AB7
:1049D000D3F8E02042F02002C3F8E020D3F8E02032
:1049E00002F020020692069AD3F8E02042F0040278
:1049F000C3F8E020D3F8E0300C9403F004030793ED
:104A00000323079A0B93CDE9080108A9274807F06B
:104A10008FFB48F23712022308A925480C94CDE9F0
:104A20000823CDE90A6707F083FB4CF203720223E7
:104A300008A920480C94CDE90823CDE90A6707F0BE
:104A400077FB40F2FF62022308A91B480C94CDE9D2
:104A50000823CDE90A6707F06BFB4FF60C720223BF
:104A600008A916480C94CDE90823CDE90A6707F098
:104A70005FFB4FF63F02022308A911480C94CDE9D1
:104A80000823CDE90A6707F053FB2022022308A977
:104A90000A480C94CDE90A67CDE9082307F048FBE2
:104AA0000EB0D0BDF8200024004402580010025877
:104AB00000180258000C025800200258001C02582E
:104AC000001402582DE9F04FDFF8108406460D4619
:104AD000144608F118002DED028B89B000AF03F0E9
:104AE000BBFED8F8183073B3D8F81C30D8F804904F
:104AF000002B43690BBF4FF0080A4FF0100A4FF02C
:104B0000020B4FF0040BB9F1000F2AD0A200EA46C5
:104B1000012B02F1070222F00702ADEB020D6846FD
:104B2000ADEB020D694600F03F81022B00F0D6800C
:104B3000002B6FD02246C847D5462437BD46BDEC72
:104B4000028BBDE8F08FD8F81C30002BF5D0D8F8D8
:104B500004904FF0080A4FF0020B4369B9F1000FBF
:104B6000D4D1FB61D8F80030BB61002BE5D0D5482B
:104B700003F0E4FE6B46BBF1020F786108EE103AD9
:104B8000FB6900F083816A465146A2EBC402954658
:104B90006200EA46B2FBFBF2AAEBC40085460AEBD0
:104BA0008200EE46F861ADEB010DF8690EEB820C68
:104BB000C7F810C0EC46ADEB010D00EB8201CCF85C
:104BC0000400CCF8081001EB82013869E946CCF802
:104BD0000C1000EB8201CCF800A001EB8202C9E9C5
:104BE00000E0C9E90212012B00F06483022B00F0FF
:104BF0006C82002B00F08081620849466046BB69E8
:104C0000984718EE103A24379D46BD46BDEC028BFE
:104C1000BDE8F08F002C8DD01A46D8ED0C6A9FEDC0
:104C2000B27A8446331D36F922E00CF1080C07EE07
:104C300090EA33F922E00232F8EEE77A944267EE26
:104C4000877A67EEA67A4CED027A07EE90EAF8EEE4
:104C5000E77A67EE877A67EEA67A4CED017AE2D8BA
:104C6000F9612246C847984ED8ED0D6A0020F969CF
:104C70002B1D9FED9E7A9FED9E6ADFED9E5A22E0EE
:104C8000F4EEC67AF1EE10FAC0F2C88447F6FE726E
:104C9000D1ED017A45F8202066EEA77AF4EEC77AC6
:104CA000F1EE10FA40F2F080F4EEC67AF1EE10FA6E
:104CB000C0F2D58447F6FE7243F820200230083156
:104CC00084427FF639AFD1ED007A66EEA77AF4EE32
:104CD000C77AF1EE10FAD3D83246D9E7002C3FF468
:104CE00029AFD8ED0C6A84469FED787A0022331DF7
:104CF0008E4656F822100CF1080C07EE901A53F865
:104D000022100232F8EEE77A944267EE877A67EE75
:104D1000A67A4CED027A07EE901AF8EEE77A67EE83
:104D2000877A67EEA67A4CED017AE2D87146224680
:104D3000C7F81CE0C847664ED8ED0D6A0020F96937
:104D40002B1D9FED6A7A9FED6A6ADFF894C120E01F
:104D5000F4EEC67AF1EE10FAC0F279843246D1ED63
:104D6000017A45F8202066EEA77AF4EEC77AF1EED4
:104D700010FA40F28780F4EEC67AF1EE10FAC0F233
:104D80005E84324643F820200230083184427FF6A8
:104D9000D3AED1ED007A66EEA77AF4EEC77AF1EEE3
:104DA00010FAD5D86246DAE7002C3FF4C3AED8ED4E
:104DB0000C6A86469FED477A4FF0000C331D56F87B
:104DC0002C200EF1080E82F40002A2F5000207EE7C
:104DD000902A53F82C200CF1020CF8EEE77A82F4BA
:104DE00000026445A2F5000267EE877A67EEA67AB4
:104DF0004EED027A07EE902AF8EEE77A67EE877AB0
:104E000067EEA67A4EED017AD9D8F9612246C847F5
:104E1000314ED8ED0D6A0020F9692B1D9FED337AD4
:104E20009FED336ADFF8BCC01FE0F4EEC67AF1EE06
:104E300010FAC0F2FC833246D1ED017A45F8202009
:104E400066EEA77AF4EEC77AF1EE10FA18D9F4EE0E
:104E5000C67AF1EE10FAC0F2DA83324643F8202027
:104E60000230083184427FF667AED1ED007A66EEFB
:104E7000A77AF4EEC77AF1EE10FAD6D86246DBE7ED
:104E80006246EBE762467DE7324615E7A100D6466B
:104E90006208073121F00701ADEB010DEA46ADEBE9
:104EA000010D6946ADEB0E0D0AEB8200EC46ADEB51
:104EB0000E0D01EB8202F861E946CCE900A0C9E9D8
:104EC000001290E6502100240280FFFF0000003015
:104ED0000082FF7F0000003482FF7F003421002425
:104EE000007E00807E0080FF0000003804FF7FBF4E
:104EF00004FF7F3F00FEFF46002C00F0C982BBF19B
:104F0000020FD8F8242000F0FA827969C7F80490DB
:104F100002EB810E5FED0C5A8A00DCF808100EF1EE
:104F200004007A611A46DCF80C303B61331DD7F877
:104F300010903D61FD69C7E902CB8C46834636F986
:104F40002210D8ED0C7A06EE101A33F9221006EE74
:104F5000901A3EF92210B8EEC66A07EE101AF8EE63
:104F6000E66A3BF92210B8EEC77A26EE256A66EEAD
:104F7000A56A27EE257A26EE276A66EEA76A27EE4F
:104F8000277A07EE901A51080232F8EEE77A0AEB18
:104F90008100944280ED006A05EB810067EEA57AFE
:104FA000C0ED006A0CEB810009EB810180ED007A15
:104FB00098ED0C7A67EE877AC1ED007ABFD8D7F802
:104FC00004903D69D7E902CB60466208BB69494657
:104FD0009847D8F82C307A69D8ED0D6A1A441FED3D
:104FE0003D7A1FED3D6A2B1D904602F1040A5FEDEC
:104FF0003F5A0022A84ED9E900EC51E0F4EEC67AFF
:10500000F1EE10FAC0F2C78247F6FE7045F82200B2
:105010000CEB0100D0ED007A66EEA77AF4EEC77AC9
:10502000F1EE10FA4BD9F4EEC67AF1EE10FAC0F2B6
:10503000BA8247F6FE70BBF1020F43F822002BD074
:10504000D9F808000844D0ED007A66EEA77AF4EEAD
:10505000C77AF1EE10FA36D9F4EEC67AF1EE10FA0C
:10506000C0F2CD8247F6FE7048F82200D9F80C0055
:105070000144D1ED007A66EEA77AF4EEC77AF1EE3C
:1050800010FA1ED9F4EEC67AF1EE10FAC0F2AF8231
:1050900047F6FE714AF82210023294427FF6B1AD13
:1050A00051080EEB81008900D0ED007A66EEA77AF8
:1050B000F4EEC77AF1EE10FAA0D83046A6E73046F3
:1050C000B9E73146E6E73046CEE7002C00F0E08154
:1050D000BBF1020FD8F8243000F0E1817A69DCF8E6
:1050E000081003EB820EC7F804909300DFED6B5AB3
:1050F0000EF1040000227B61DCF80C303B61331DB3
:10510000D7F810903D61FD69C7E902CB8C46834614
:1051100056F82210D8ED0C7A07EE101A53F8221028
:10512000B8EEC76A07EE101A5EF82210F8EEC76AEA
:1051300007EE101A26EE256A5BF82210B8EEC77A41
:1051400066EEA56A26EE276A27EE257A66EEA76A3E
:1051500027EE277A07EE901A51080232F8EEE77A26
:105160000AEB8100944280ED006A05EB810067EE56
:10517000A57AC0ED006A0CEB810009EB810180ED9E
:10518000007A98ED0C7A67EE877AC1ED007ABFD885
:10519000D7F804903D69D7E902CB60466208BB6945
:1051A00049469847D8F82C307A69D8ED0D6A1A44E8
:1051B0009FED3E7A9FED3E6A131D9246DFF8E4C0F4
:1051C0000022FB612B1D364ED9E9008E4EE0F4EE35
:1051D000C67AF1EE10FAC0F2FC81304645F82200A2
:1051E0000EEB0100D0ED007A66EEA77AF4EEC77AF6
:1051F000F1EE10FA49D9F4EEC67AF1EE10FAC0F2E7
:10520000EF813046BBF1020F43F822002AD0D9F8D3
:1052100008000844D0ED007A66EEA77AF4EEC77A6B
:10522000F1EE10FA35D9F4EEC67AF1EE10FAC0F2CA
:10523000C98130464AF82200D9F80C000144D1ED6A
:10524000007A66EEA77AF4EEC77AF1EE10FA1ED96C
:10525000F4EEC67AF1EE10FAC0F2AD813146F8698B
:1052600040F82210023294427FF6CBAC510808EB92
:1052700081008900D0ED007A66EEA77AF4EEC77A55
:10528000F1EE10FAA3D86046A8E76046BAE7614697
:10529000E5E76046CEE700BF0280FFFF0000003078
:1052A0000082FF7F007E00800000003404FF7FBF8B
:1052B00004FF7F3F002C00F0EB807A690021D8F8D2
:1052C0002430C7F8109003EB820ED7F81C9093009F
:1052D000FD610EF104021FED0C6A7B61331D154662
:1052E00056F821204808D8ED0C6ABBF1020F82F471
:1052F0000002A2F5000207EE902A53F8212082F462
:105300000002B8EEE77AA2F5000227EE067A07EE71
:10531000902A0AEB8002F8EEE77A27EE267A67EE0B
:10532000867A82ED007A09EB80024FEA800067EE10
:10533000A67AC2ED007A27D05EF8212082F400021E
:10534000A2F5000207EE902A55F8212082F400020F
:10535000B8EEE77AA2F5000227EE067A07EE902A69
:10536000DCF80820F8EEE77A024427EE267A67EEAA
:10537000867A82ED007A98ED0C7ADCF80C2067EEE4
:10538000877A0244C2ED007A02318C42A8D8D7F85D
:10539000109060466208BB694946FD699847D8F895
:1053A0002C307A69D8ED0D6A1A441FED407A1FED52
:1053B000406A131D9246DFF8C4C20022FB612B1D18
:1053C000AB4ED9E9008E4EE0F4EEC67AF1EE10FA5B
:1053D000C0F2C580304645F822000EEB0100D0ED4A
:1053E000007A66EEA77AF4EEC77AF1EE10FA49D9A0
:1053F000F4EEC67AF1EE10FAC0F2BF803046BBF18F
:10540000020F43F822002AD0D9F808000844D0ED52
:10541000007A66EEA77AF4EEC77AF1EE10FA35D983
:10542000F4EEC67AF1EE10FAC0F2AE8030464AF8D9
:105430002200D9F80C000144D1ED007A66EEA77A7B
:10544000F4EEC77AF1EE10FA1ED9F4EEC67AF1EE58
:1054500010FAC0F28B803146F86940F8221002320F
:1054600094427FF6CEAB510808EB81008900D0ED65
:10547000007A66EEA77AF4EEC77AF1EE10FAA3D8B6
:105480006046A8E76046BAE76146E5E76046CEE7D2
:10549000224649466046BB699847FFF7B2BBC7F84A
:1054A00010B0002298ED0C6A331DDFED726AD7F858
:1054B0001CB0786956F8221007EE901A53F82210A3
:1054C000B8EEE77A07EE901A51080232F8EEE77A62
:1054D00027EE267A0AEB810E94420BEB810167EEF0
:1054E000A67A27EE067A67EE867A8EED007AC1ED0F
:1054F000007ADFD88300D7F810B07B614DE61A46FA
:10550000C7F810B098ED0C6A331DDFED5B6AD7F871
:105510001CB0786936F9221007EE101A33F9221000
:1055200007EE901AB8EEC77A51080232F8EEE77A21
:1055300027EE267A0AEB810E94420BEB810167EE8F
:10554000A67A27EE067A67EE867A8EED007AC1EDAE
:10555000007ADFD88300D7F810B07B6134E5F0EE35
:10556000675AFEEEE45A15EE900A34E7F0EE675AF9
:10557000FEEEE45A15EE901A6EE7F0EE675AFEEE74
:10558000E45A15EE900A3AE7F0EE675AFEEEE45A56
:1055900015EE900A4BE767EEA57AFDEEE77A17EE77
:1055A000900A00B232E567EEA57AFDEEE77A17EED3
:1055B000900A00B23FE5F0EE675AFEEEE05A15EEB3
:1055C000901A4CE6F0EE675AFEEEE05A15EE900A9D
:1055D00030E6F0EE675AFEEEE05A15EE900AFDE571
:1055E000F0EE675AFEEEE05A15EE900A0AE667EE14
:1055F000A57AFDEEE77A17EE901A09B24AE567EE52
:10560000A57AFDEEE77A17EE900A00B22CE5F0EEEF
:10561000675AFEEEE45A15EE902A1FE467EEA57A6B
:10562000FDEEE77A17EE902A12B2FFF731BBF0EEEB
:10563000675AFEEEE45A15EE902AFFF7FDBBF0EE36
:10564000675AFEEEE05A15EE902AFFF79BBBF0EE8C
:10565000675AFEEEE05A15EE902AFFF780BB67EE20
:10566000A57AFDEEE77A17EE902A12B2FFF724BB77
:1056700082FF7F0000000030000000387E0080FFC5
:1056800030B5184C154685B0046004F1080EEC46A0
:105690000FC98EE80F00D4ED047AF5EEC07A8CE8DD
:1056A0000F00F1EE10FA1ADDB7EE006A94ED057AFC
:1056B00027EE277AC6EE276A84ED0D7AC4ED0C6AD0
:1056C0006DB1204640F8185F03F0C6F8064903693B
:1056D0000020064A2162A262E36005B030BD0120CD
:1056E00005B030BD3421002480210030800100301D
:1056F00000680830704700BFB1F5807F03680A4634
:1057000028BF4FF48072B1F5807F9A6094BF00206B
:10571000012070470068183003F0FEB870B50468C7
:105720008AB0A369E1600BB304F118056FF0F413BC
:105730004FF60B722846ADF80C20CDE9013303F08B
:105740008BF88446EE46E668BCE80F00AEE80F0032
:10575000BCE80F00AEE80F009CE803008EE80300F1
:1057600069462846049602F07FFF38BBE06918B30B
:1057700004F11C056FF0F4134FF60B722846ADF8D8
:105780000C20CDE9013303F067F88446EE46E46867
:10579000BCE80F00AEE80F00BCE80F00AEE80F0059
:1057A0009CE803008EE8030069462846049402F052
:1057B0005BFF003818BF01200AB070BD01200AB09D
:1057C00070BD00BF30B5046883B00D46E3694BB1CE
:1057D000A3680020E26A616A9B00009004F11C004B
:1057E00003F03CF8A3680748A26A9B00216A009076
:1057F00004F1180003F032F80020C4E9005003B0AF
:1058000030BD00BFC54A000810B4074B4FF07E51B1
:1058100030240022032019619C60D8605DF8044B9D
:105820005961C3E90622704734210024F6EE007A5C
:105830009FED166A20EE207A0160F7EE006A80ED97
:10584000036A80ED020A27EE277AC6EE877AF4EE25
:10585000E67AF1EE10FA11DDF0EE667A4FF07E5145
:105860004FF0000C02760022C0ED017AC0F814C09F
:10587000016143768276C0ED070A7047F4EEC67A7E
:10588000F1EE10FAEAD5F0EE467AE7E70000000004
:10589000DFED187AB6EE007AF7EE006A9FED166A31
:1058A00060EE277A016080ED036A80ED020A67EE00
:1058B000877A86EEA77AB4EEE67AF1EE10FA10DD7A
:1058C000B0EE667A4FF0804C4FF07C514FF480720E
:1058D000012380ED017AC0F810C041610283837614
:1058E0007047B4EEC67AF1EE10FAEBD5B0EE467A18
:1058F000E8E700BF6F12033B000000000268037E70
:10590000128807EE902AFBEEC87A1BB1B7EE007A38
:1059100077EE677AD0ED056A90ED047A77EEE67A55
:10592000437E67EE877A0BB1F1EE677A90ED030A5A
:1059300090ED017A77EEC07AA7EE270A80ED030A90
:10594000704700BF837E80ED020AABB9D0ED077AC5
:1059500027EE800AF6EE007AB7EE007A20EE270AEC
:10596000C7EE007AF4EEC77AF1EE10FA07DDF0EE3A
:10597000477AC0ED017A7047DFED067AE8E7F5EE89
:10598000C07AF1EE10FAF4D5DFED037AC0ED017ABA
:10599000704700BF6F12033B0000000070B584B079
:1059A000002504461646ADF80C102B462A460399EE
:1059B000009501F09DF8A582A67504B070BD00BFEA
:1059C00070B52DED028B84B0002615460446ADF867
:1059D0000C1033460122039918300096B0EE408A2D
:1059E00001F086F8B5FA85F3002226605B0966604F
:1059F000A260257584ED048AA575637504B0BDECBD
:105A0000028B70BD20EE007ADFED067A27EE000AE9
:105A100060EE277A80ED020AFCEEE77AC0ED017AAB
:105A2000704700BF00FF7F4790ED046AB7EE007A31
:105A3000DFED0E5A0346D0ED036A1830C5EE867AC4
:105A400077EEA67AF4EEC77AF1EE10FAC8BF77EED9
:105A5000C77A10ED047AB4EEE77A40ED037AF1EEFE
:105A600010FACCBF597D997D01F034B90000F042A5
:105A7000704700BFF8B5144F3C68B4F5006F08D309
:105A80004FF40063114A42F224411C463B60A2F8E5
:105A9000FE170F4D2B68012B0AD90C4E0D4D2246D7
:105AA0003146284600F02EF90028F8D13860F8BDBC
:105AB00022460649074800F025F90028F7D12B684F
:105AC000386001332B60F8BD70210024742100245C
:105AD0006C2100247429002430B4164C216801B3D1
